:1000000014C1000040C100003EC100003CC100001E
:100010003AC1000038C1000036C1000034C1000000
:1000200032C1000030C100002EC100002CC1000010
:100030002AC1000028C1000026C1000024C1000020
:1000400022C1000020C100001EC100001CC1000030
:100050001AC1000018C1000016C1000085C30000CD
:1000600012C100004BC3000020C300000CC10000FF
:100070000AC1000008C1000006C1000004C1000060
:1000800002C1000000C10000FEC00000FCC0000072
:10009000FAC00000F8C00000F6C00000F4C0000084
:1000A000F2C00000F0C00000EEC00000ECC0000094
:1000B000EAC00000E8C00000E6C00000E4C00000A4
:1000C000E2C00000E0C00000DEC00000DCC00000B4
:1000D000DAC00000D8C00000D6C00000D4C00000C4
:1000E000D2C000009402970286028A028E02CE02DB
:1000F0009B029F02A502A902AD02B302B702BB0296
:10010000CE02C102C502C90200002100240027005E
:100110002A002D0030003300010100000401070116
:100120000A0100002200250028002B002E003100CB
:10013000340002010000050108010B0100000A0B58
:1001400002090C0D0E080703040100000000000066
:10015000000000000000000000000000000000009F
:10016000000000000000000012111000000000005C
:10017000000000000000000000000000000000007F
:100180000000000020002300260029002C002F0082
:100190003200000100000301060109010505050503
:1001A000070508080808020202020A0A08080404EF
:1001B000040401010101010101010303030303031D
:1001C0000303040707070C0C0C0C0C0C0C0C0202AC
:1001D000020206060606060606060B0B0B0B0B0BA9
:1001E0000B0B010210202008081020401020408036
:1001F00002010201080402010102040810204080EB
:100200008040201008040201800402018040201078
:1002100008040201080402010102040810204080C1
:100220000102040810204080E70511241FBECFEF13
:10023000D1E2DEBFCDBF00E00CBF12E0A0E0B2E033
:10024000ECECFEE000E00BBF02C007900D92A03383
:10025000B107D9F722E0A0E3B2E001C01D92AA3DA8
:10026000B207E1F711E0C5E1D1E000E005C0219758
:100270000109802FFE01FAD4C431D10780E00807BC
:10028000B1F701D321C6BCCECF92DF92EF92FF929D
:100290000F931F93CF93DF936C017A018B01C0E022
:1002A000D0E0CE15DF0589F0D8016D918D01D60122
:1002B000ED91FC910190F081E02DC6011995892BFB
:1002C00011F47E0102C02196ECCFC701DF91CF91DE
:1002D0001F910F91FF90EF90DF90CF900895FC0158
:1002E000918D828D981761F0828DDF01A80FB11D6D
:1002F0005D968C91928D9F5F9F73928F90E0089591
:100300008FEF9FEF0895FC01918D828D981731F04A
:10031000828DE80FF11D858D90E008958FEF9FEF9E
:100320000895FC01918D228D892F90E0805C9F4F74
:10033000821B91098F73992708958DE392E0F1DF75
:1003400021E0892B09F420E0822F0895FC01848D9F
:10035000DF01A80FB11DA35ABF4F2C91848D90E0EF
:1003600001968F739927848FA689B7892C93A089CA
:10037000B1898C9180648C93938D848D981306C081
:100380000288F389E02D80818F7D80830895EF922C
:10039000FF920F931F93CF93DF93EC0181E0888F3F
:1003A0009B8D8C8D981305C0E889F989808185FD26
:1003B00023C0F62E0B8D10E00F5F1F4F0F73112718
:1003C000E02E8C8DE8120BC00FB607FCFACFE8893F
:1003D000F989808185FFF5CFCE01B8DFF2CF8B8D13
:1003E000FE01E80FF11DE35AFF4FF0820B8FEA89FF
:1003F000FB898081806207C0EE89FF896083E8897C
:10040000F98980818064808381E090E0DF91CF91E1
:100410001F910F91FF90EF900895CF93DF93EC0120
:10042000888D8823C1F0EA89FB89808185FD05C01C
:10043000A889B9898C9186FD0EC00FB607FCF5CF4F
:10044000808185FFF2CFA889B9898C9185FFEDCF96
:10045000CE017CDFE8CFDF91CF91089580E090E07E
:10046000892B19F06ADF811125C080E090E0892B8B
:1004700041F080E090E0892B21F00E940000811182
:100480001CC080E090E0892B41F080E090E0892B57
:1004900021F00E940000811113C080E090E0892BC0
:1004A000A1F080E090E0892B81F00E940000811192
:1004B0000AC008950E940000D8CF0E940000E1CF3A
:1004C0000E940000EACF0C9400000895362F90E0BF
:1004D000FC01E45CFE4F4491FC01EE51FE4F24917F
:1004E000FC01E456FE4F9491992309F46AC0442319
:1004F00009F454C050E0FA013197E231F10508F0F7
:100500004DC08827EE58FF4F8F4FB0C380918000B9
:100510008F7707C0809180008F7D03C0809180001D
:10052000877F809380003AC084B58F7702C084B5FE
:100530008F7D84BD33C08091B0008F7703C08091E0
:10054000B0008F7D8093B00029C0809190008F779C
:1005500007C0809190008F7D03C080919000877FBD
:10056000809390001BC08091A0008F7707C080917E
:10057000A0008F7D03C08091A000877F8093A000A2
:100580000DC0809120018F7707C0809120018F7D61
:1005900003C080912001877F80932001E92FF0E044
:1005A000EE0FFF1FEE5DFE4FA591B4918FB7F8944B
:1005B000EC91311103C020952E2301C02E2B2C93DA
:1005C0008FBF0895CF93DF9390E0FC01EE51FE4F73
:1005D0002491FC01E456FE4F8491882361F190E060
:1005E000880F991FFC01E85FFE4FC591D491FC0173
:1005F000EE5DFE4FA591B491611109C09FB7F894CB
:100600008881209582238883EC912E230BC0623051
:1006100061F49FB7F8943881822F80958323888373
:10062000EC912E2B2C939FBF06C08FB7F894E881D6
:100630002E2B28838FBFDF91CF9108953FB7F89479
:100640008091350290913602A0913702B091380224
:1006500026B5A89B05C02F3F19F00196A11DB11D1D
:100660003FBFBA2FA92F982F8827820F911DA11D58
:10067000B11DBC01CD0142E0660F771F881F991F95
:100680004A95D1F70895009761F0FC010190002090
:10069000E9F73197AF01481B590BBC018DE392E09C
:1006A000F3CD80E090E008950BD41F920F920FB627
:1006B0000F9211240BB60F922F933F934F935F939A
:1006C0006F937F938F939F93AF93BF93EF93FF931A
:1006D0008DE392E03BDEFF91EF91BF91AF919F914F
:1006E0008F917F916F915F914F913F912F910F90DB
:1006F0000BBE0F900FBE0F901F9018951F920F9278
:100700000FB60F9211240BB60F922F938F939F93D6
:10071000EF93FF93E0914D02F0914E028081E091C2
:100720005302F091540282FD12C0908180915602D2
:100730008F5F8F7320915702821751F0E09156021C
:10074000F0E0E35CFD4F958F8093560201C08081FD
:10075000FF91EF919F918F912F910F900BBE0F9072
:100760000FBE0F901F9018951F920F920FB60F9209
:1007700011242F933F938F939F93AF93BF938091B7
:10078000310290913202A0913302B0913402309143
:10079000300223E0230F2D3720F40196A11DB11D57
:1007A00005C026E8230F0296A11DB11D209330023B
:1007B0008093310290933202A0933302B0933402BB
:1007C0008091350290913602A0913702B0913802A3
:1007D0000196A11DB11D8093350290933602A0931E
:1007E0003702B0933802BF91AF919F918F913F91A3
:1007F0002F910F900FBE0F901F901895CF92DF9200
:10080000EF92FF920F931F93E82FF92F05C001502D
:1008100011092109310961F1908196239417B9F3E7
:1008200005C0015011092109310911F19081962368
:100830009413F7CFC12CD12CE12CF12C0AC08FEFEF
:10084000C81AD80AE80AF80A0C151D052E053F0536
:1008500079F080818623841791F36C2D7D2D8E2D68
:100860009F2D1F910F91FF90EF90DF90CF900895F3
:1008700060E070E080E090E01F910F91FF90EF90BA
:10088000DF90CF900895CF93DF93CDB7DEB7A197D8
:100890000FB6F894DEBF0FBECDBF789484B58260EA
:1008A00084BD84B5816084BD85B5826085BD85B514
:1008B000816085BD80916E00816080936E00109292
:1008C000810080918100826080938100809181000D
:1008D000816080938100809180008160809380009E
:1008E0008091B10084608093B1008091B0008160FC
:1008F0008093B000809191008260809391008091FC
:10090000910081608093910080919000816080933C
:1009100090008091A10082608093A1008091A1004D
:1009200081608093A1008091A00081608093A000ED
:100930008091210182608093210180912101816059
:10094000809321018091200181608093200180911A
:100950007A00846080937A0080917A00826080932C
:100960007A0080917A00816080937A0080917A0089
:10097000806880937A001092C10061E084E022DEFA
:1009800061E085E01FDE61E086E01CDE61E087E07B
:1009900019DEE0914D02F0914E0282E08083E091F9
:1009A0004902F0914A021082E0914B02F0914C0210
:1009B0008FEC808310925502E0915102F091520227
:1009C00086E08083E0914F02F09150028081806147
:1009D0008083E0914F02F091500280818860808393
:1009E000E0914F02F0915002808180688083E09115
:1009F0004F02F091500280818F7D808361E082E020
:100A0000E1DD60E083E0DEDD25EE222E21E0322E06
:100A10003AE0432E512C612C712C60E082E056DDCF
:100A20008FE090E00197F1F761E082E04FDD83E233
:100A300090E00197F1F7F1016491EFE9F1E0849121
:100A4000E82FF0E0EE0FFF1FEE57FE4F85919491D7
:100A500000E412E42FE030E0462FD0DE611571058E
:100A60008105910549F0DC01CB010196A11DB11D65
:100A7000BC01CD019F7003C060E070E0CB016093CA
:100A8000390270933A0280933B0290933C0227D143
:100A900026E933E44BE85CE388D1F0D04B015C01FC
:100AA0007B0180E192E0EFDD8AE192E0ECDD092C50
:100AB000000CAA08BB08B7FE25C0E0913D02F091EA
:100AC0003E020190F081E02D6DE28DE392E01995F8
:100AD00022273327A901281939094A095B0919A2D4
:100AE0008E010F5D1F4FCA01B901A30192019CD075
:100AF000605DF80162938F012115310541055105B3
:100B000091F714C0A501940119A28E010F5D1F4F2A
:100B1000CA01B901A301920187D0605DF801629317
:100B20008F01211531054105510591F7C801ABDD54
:100B30008AE192E0A8DD8DE192E0A5DD8AE192E014
:100B4000A2DDF1E1EF16F10444F481E292E09BDDD5
:100B500060E084E0BBDC61E00BC021E1E216F1045F
:100B600079F088E292E08FDD61E084E0AFDC60E064
:100B700085E0ACDC61E086E0A9DC60E087E0A6DC33
:100B80005DDD4B015C018CE2C82EDD24D394E12CA9
:100B9000F12C54DDDC01CB0188199909AA09BB09A4
:100BA000883E9340A105B10558F081E0C81AD108EC
:100BB000E108F108E8EE8E0EE3E09E1EA11CB11CD8
:100BC000C114D104E104F10421F748DC26CFEDE3A0
:100BD000F2E01382128288EE93E0A0E0B0E084831A
:100BE0009583A683B78384E092E09183808385EC2C
:100BF00090E09587848784EC90E09787868780ECE7
:100C000090E0918B808B81EC90E0938B828B82ECD7
:100C100090E0958B848B86EC90E0978B868B118E81
:100C2000128E138E148E0895A1E21A2EAA1BBB1BDE
:100C3000FD010DC0AA1FBB1FEE1FFF1FA217B307A8
:100C4000E407F50720F0A21BB30BE40BF50B661FBE
:100C5000771F881F991F1A9469F760957095809582
:100C600090959B01AC01BD01CF010895EE0FFF1FD0
:100C7000881F8BBF0790F691E02D199404D06894DB
:100C8000B1118DC0089570D088F09F5790F0B92FA2
:100C90009927B751A0F0D1F0660F771F881F991FD1
:100CA0001AF0BA95C9F712C0B13081F077D0B1E02F
:100CB000089574C0672F782F8827B85F39F0B93F3F
:100CC000CCF3869577956795B395D9F73EF49095D3
:100CD0008095709561957F4F8F4F9F4F0895E89451
:100CE00009C097FB3EF490958095709561957F4F74
:100CF0008F4F9F4F9923A9F0F92F96E9BB27939522
:100D0000F695879577956795B795F111F8CFFAF431
:100D1000BB0F11F460FF1BC06F5F7F4F8F4F9F4F62
:100D200016C0882311F096E911C0772321F09EE8C0
:100D3000872F762F05C0662371F096E8862F70E026
:100D400060E02AF09A95660F771F881FDAF7880F00
:100D50009695879597F9089557FD9058440F551F1C
:100D600059F05F3F71F04795880F97FB991F61F02D
:100D70009F3F79F087950895121613061406551FA4
:100D8000F2CF4695F1DF08C0161617061806991F10
:100D9000F1CF86957105610508940895E894BB2705
:100DA00066277727CB0197F908950BD078C069D0D3
:100DB00028F06ED018F0952309F05AC05FC01124B6
:100DC000EECFCADFA0F3959FD1F3950F50E0551FEA
:100DD000629FF001729FBB27F00DB11D639FAA2790
:100DE000F00DB11DAA1F649F6627B00DA11D661FDF
:100DF000829F2227B00DA11D621F739FB00DA11D00
:100E0000621F839FA00D611D221F749F3327A00DB9
:100E1000611D231F849F600D211D822F762F6A2F55
:100E200011249F5750408AF0E1F088234AF0EE0FDA
:100E3000FF1FBB1F661F771F881F91505040A9F7E7
:100E40009E3F510570F014C0AACF5F3FECF3983E6F
:100E5000DCF3869577956795B795F795E7959F5F4E
:100E6000C1F7FE2B880F911D9695879597F90895E8
:100E700097F99F6780E870E060E008959FEF80EC4D
:100E8000089500240A9416161706180609060895F0
:100E900000240A9412161306140605060895092E56
:100EA0000394000C11F4882352F0BB0F40F4BF2BC5
:100EB00011F460FF04C06F5F7F4F8F4F9F4F089505
:0C0EC00081E090E0F89400C0F894FFCFAF
:100ECC0000000000C701440191016F0183010D0274
:100EDC0064697374616E636961000D0A0020636D4F
:100EEC0000617472C3A1730064656C616E746500FB
:00000001FF
